:020000040000FA
:10000000400F002051170000591700005D17000035
:1000100000000000000000000000000000000000E0
:100020000000000000000000000000007517000044
:10003000000000000000000077170000115D0000C4
:10004000B5220000872A00007D170000F11D000086
:10005000011E0000111E00001B1E000035320000B2
:100060003F3200004932000095170000134700009E
:100070009517000095170000951700005D320000ED
:10008000673200001D470000951700003D3A000050
:10009000473A000053320000951700009517000002
:1000A00095170000951700009517000095170000A0
:1000B000BD2000005F4B0000951700009517000061
:1000C00000F002F800F03EF80CA030C80838241800
:1000D0002D18A246671EAB4654465D46AC4201D180
:1000E00000F030F87E460F3E0FCCB6460126334274
:1000F00000D0FB1AA246AB463343184720630000EA
:1001000040630000103A02D378C878C1FAD8520789
:1001100001D330C830C101D504680C6070470000BD
:100120000023002400250026103A01D378C1FBD813
:10013000520700D330C100D50B6070471FB51FBDFB
:1001400010B510BD06F036F81146FFF7F7FF00F0C6
:1001500050FB06F04EF803B4FFF7F2FF03BC06F0C5
:1001600053F8000070B505460C46164602E00FCC69
:100170000FC5103E102EFAD2082E02D303CC03C5B1
:10018000083E042E07D301CC01C5361F03E02178B9
:100190002970641C6D1C761EF9D270BD10B5002844
:1001A00019DBFE4A03231B02D21883089B00D25896
:1001B0008307DC0EFF23A3409A438B071B0E8407A3
:1001C000E40EA3401A43F54B032424021B198408B0
:1001D000A4001A5118E0F24A03071B0F083B9B08C2
:1001E0009B00D2588307DC0EFF23A3409A438B0762
:1001F0001B0E8407E40EA3401A43E94B0407240FA7
:10020000083CA408A4001A5110BD10B50446601E95
:10021000E449884201D9012010BD601EE2494861CD
:100220000321081FFFF7BAFF0020DF49886107207C
:1002300008610020F0E710B57D21C900DB480068A7
:1002400005F008FF0446FFF7E0FF10BDD848D94984
:1002500088638862002008700021D64840304174CD
:100260002030007F40218843D24960310877072140
:10027000D04820304175D048CE494860E430C8604D
:100280003830086138304861383088612C308860F7
:100290001038C861C01D086225304862C748C84987
:1002A0000860C848C349486638308866C648C749A8
:1002B0000860C748C07A80088000401CC449C872E2
:1002C0000846C07A1C2188430830C149C872FF2003
:1002D000C0300860BF484860BF48006802218843BA
:1002E000BD4908600846006840218843BA49086053
:1002F00008460068802188438030B749086070470D
:1003000010B505220921002001F0E4FB0222092199
:10031000002001F0CAFB05220021012001F0DAFBD8
:1003200002220021012001F0C0FB0522042101204E
:1003300001F0D0FB02220421012001F0B6FB0522CE
:100340000B21012001F0C6FB02220B21012001F04C
:10035000ACFB05220221084601F0BCFB022211463B
:10036000104601F0A2FB05220021032001F0B2FBA0
:1003700002220021032001F098FB052203210846F8
:1003800001F0A8FB02220321084601F08EFB0522A2
:100390000021084601F09EFB02220021084601F0E0
:1003A00084FB01208007C06A012149068843490176
:1003B000C8620846406B49118843490148630846B2
:1003C000C06A491108434901C8620846406B491197
:1003D0000843490148630846C06A491088434900F8
:1003E000C8620846406B4910884349004863084684
:1003F000C06A491008434900C8620846406B49106A
:1004000008434900486310BD10B5002004F023FCE8
:1004100068482030007F012805D170491920C001AB
:1004200004F0CDFC03E00F20000204F0BEFC00212C
:10043000084604F014FC082004F06EFC012004F0CF
:10044000ABFC642004F06CFCC621002004F078FCB6
:100450006921012004F074FCD221022004F070FC18
:10046000BF21032004F06CFC8121042004F068FC0F
:100470007621052004F064FC5B21062004F060FC7A
:100480001E2004F063FC462004F063FCFF22F532DA
:100490001421012004F060FC322004F064FC3220BE
:1004A00004F065FC642004F066FC0021084604F0BA
:1004B00066FC002004F068FCFF202D3004F068FC8E
:1004C000012000F0E8FD0F220821084600F0A6FDFB
:1004D000434800F06FFA05F005FC10BD1CB504465A
:1004E000230005F098FE06040C141C242C34022171
:1004F00068460170082141703A48019027E00221C6
:100500006846017009214170374801901FE00221BF
:10051000684601700A2141703448019017E00221B9
:10052000684601700B214170314801900FE00221B3
:10053000684601700C2141702E48019007E00221AD
:10054000684601700D2141702B48019000BF00BF2B
:10055000684602F005F81CBD0EB51F480088C005AE
:10056000C00F00287ED013486030007F0007C00F06
:10057000002878D00F486030007F082188430D495B
:10058000603108770020FFF7A9FF1148C07AC00644
:10059000400F8000801C1949486331E000E100E011
:1005A0001CED00E0FFFFFF0000E000E03400002051
:1005B00092240900B405002024020020FB1500004D
:1005C0006000002000040020DD1400002000002056
:1005D000FC010020FFFF000000000020A50A000031
:1005E00020A107000048E8010024F40000127A006E
:1005F00000093D0080841E0040420F000060004062
:100600000846406B01210843964948639648406874
:100610001C218843944948600220944908700021B5
:1006200092482030017590484068802108438E49E7
:10063000486000208C492039086203211D20FFF703
:10064000ADFD1D20002805DBC206D20E0121914020
:10065000874A116000BF1D2000280CDB00BF00BFCF
:10066000C20601E035E00FE0D20E01219140814A3F
:10067000116000BF00BF00BF7F480068FF2101314B
:1006800088437D490860B3E0002002F03EF808206E
:10069000C04302F07DF9022002F05CF900216846B7
:1006A0000170417001218170744801900F216846EA
:1006B00001720022114604F0FCF8714804F02FF991
:1006C00001F0E2FD0020FFF709FF6E486E49086067
:1006D0008EE005F069FB8021084000287CD0802056
:1006E00005F061FC01287BD15E48406B80088000EA
:1006F0005C4948631D20002816DBC206D20E01218A
:1007000091405C4A8032116000BF00BF00BFBFF360
:100710004F8F00BF00BF00BF00BF00BF00BFBFF3CF
:100720006F8F00BF00BF00BF00BF4F4840688021EF
:1007300088434D49486055494B48C16000204A49AB
:1007400020390862484840681C218843464948606F
:100750000846406810210843434948601120424937
:100760002039086200BF40482038006A0421084050
:100770000028F8D03D48406A0078C000444940183D
:1007800000683A4948650846406D8865084660300B
:10079000007F082188433549603108773648006872
:1007A00001214902884340183349086000202E493E
:1007B00020390862304800688915884340182E495E
:1007C000086000BF3348007AC007C00F0028F9D185
:1007D000FFF784FE04E0FFE72F49802005F09EFA32
:1007E0002248C06A002803D02B49802005F096FAE1
:1007F0000EBD00F07FF800F053F80020FFF76EFE0A
:100800007D21C9002548006805F024FC0546FFF756
:10081000FCFCFFF775FDFFF719FDFFF7F5FD62B66C
:1008200000241EE0002C04D0012C05D0022C09D19C
:1008300005E000F0DFFD06E005F0ADF803E000F0B4
:10084000F6FA00E000BF00BF0B480088C005C00FEB
:10085000002801D0012C04D0601CC4B2032C00D1AC
:100860000024DFE70060004020370040B40500208E
:1008700080E200E000E100E000000020FFFFFF0058
:1008800027090000A095695A001A00409224090027
:10089000003600409400002060EA00003400002090
:1008A0001FB5022168460172092141720F48039069
:1008B0006846007A072815D1012168464171002158
:1008C00001710321C1700A49039805F0C3FB401E62
:1008D000C1B268464170012181700021017001F0B0
:1008E00065FE00BF02A801F03BFE1FBD0024F4001E
:1008F00040420F0010B501F08EF810BD10B5032274
:100900000021104601F0E6F802220021032001F048
:10091000CCF8002002F008F810BD10B50122042127
:10092000104601F0D7F802220421012001F0BDF8A1
:1009300001220421104601F005F90122052110468B
:1009400001F0C8F802220521012001F0AEF80122D1
:100950000521104601F0F6F810BD000070B5044600
:100960000D4602202040002816D00120FB490870C7
:10097000FB480178FB4802680068401CF94B18608E
:100980001846083081540020F449087001231A46A3
:10099000F349184602F062FEE007C00F002808D0B5
:1009A0000120F1490870F148007A40084000EF4901
:1009B000087270BDED494860ED49096820229143F5
:1009C0002031EB4A116070471CB50122042105203B
:1009D00001F080F802220421052001F066F80122CE
:1009E0000421052001F0AEF801220521084601F09E
:1009F00071F802220521084601F057F8012205216D
:100A0000084601F09FF8D9484068009003216846E5
:100A100001710021417181710F21C1710023D54AFB
:100A20006946012002F019FD01231A46CC491846F7
:100A300002F014FE62B61CBD0020CF4A1070CF4AEF
:100A40001070C84A10605060002105E00022C548BF
:100A500008304254481CC1B26429F7DB002104E08D
:100A60000020C74A5054481CC1B21929F8DBBF48BE
:100A7000007A40084000BD4A1072012070470146CC
:100A8000002200231CE01007020E0878302807DB44
:100A90000878392804DC087830381043C2B20CE0FA
:100AA0000878612807DB0878662804DC087857385E
:100AB0001043C2B201E0FF207047491C581CC3B26A
:100AC000022BE0DB1046F7E770B505460024002650
:100AD00038E0A44841684068401CA24A5060104673
:100AE0000830445C11464868642105F0B3FA9D481B
:100AF0004160A1480078002802D003281AD108E0FC
:100B0000022C05D100209D49087003209A490870E5
:100B100014E09A4801780078401C984A1070984870
:100B20004454032C05D100209349087001269448B1
:100B3000286003E000209049087000BF00BF002E2D
:100B400000D005E087480068864949688842C0D1DE
:100B500000BF304670BD00208449087004204870F2
:100B60000F20887070477F49CA6EC96E491C7D4B43
:100B7000D9661946783188547839496FC2B28918D4
:100B80001A465167704710B501040A0E7549CB6EBD
:100B9000C96E491C734CE16621467831CA547839D4
:100BA000CB6EC96E491CE16621467831C85478394C
:100BB000496F0204120E8918224651671146496F87
:100BC000C2B289182246516710BDF8B500206549A8
:100BD000C866086748673A216248C26EC06E401C0A
:100BE000604BD8661846783081540020009001266A
:100BF00000240CE05D4880783040002803D0009845
:100C0000401CC0B200907006060E601CC4B2082CD6
:100C1000F0DB564840780099484340005A30C5B24E
:100C20002846E90F09184910802211430D4628462D
:100C3000FFF799FF0020FFF796FF1020FFF793FFC3
:100C40005049898DC8B2FFF78EFF0020FFF78BFF58
:100C50004648047879E045488078C007C00F0028EE
:100C600004D0E20048498858FFF78DFF3F4880785C
:100C700002210840002805D0E20043493831885855
:100C8000FFF781FF3948807804210840002805D00B
:100C9000E2003D4951184868FFF775FF33488078F6
:100CA00008210840002806D0E200374938315118A1
:100CB0004868FFF768FF2D48807810210840002819
:100CC0000BD0A1003048E4384758002F01DB3946EB
:100CD00000E079420846FFF756FF2448807820213B
:100CE0000840002805D0A2002749D4318858FFF7D2
:100CF0004AFF1E4880784021084000280ED0A200FC
:100D00002149D43189581F4A6032127C5143084628
:100D1000642105F0A9F90746FFF735FF13488078ED
:100D20008021084000280ED0A2001749D4318958EC
:100D3000144A6032527C51430846642105F094F90C
:100D40000746FFF720FF601CC4B208480078074937
:100D500049784018A04219DD7DE700001500002009
:100D600004000020A00000201400002094000020B7
:100D7000000000205D090000160000201700002080
:100D8000E0010020B405002008030020002406E054
:100D9000A100864A5058FFF7F6FE601CC4B2182C1A
:100DA000F6DB002407E0A200804960318858FFF795
:100DB000EAFE601CC4B2132CF5DB7D48406FC043D3
:100DC00080B2401E7A4948670846406F0004010E11
:100DD0007748C26EC06E401C754BD8661846783096
:100DE00081547838406FC1B21846C26EC06E401C44
:100DF000D8661846783081540D217838C26EC06E9E
:100E0000401CD8661846783081540A217838C26E62
:100E1000C06E401CD866184678308154783801235B
:100E200001467831C26E184602F0AFFBF8BDF8B546
:100E3000604800788006C00F002800D1F8BD5E48E9
:100E40000078002804D001280ED002287CD186E04A
:100E5000FFF7BAFDFFF7F0FDFFF77DFE564800787B
:100E6000401C554908709DE06846FFF72DFE064678
:100E7000012E6ED100980078522806D0542817D041
:100E80005A2863D0772862D14CE00098401CFFF7C5
:100E9000F6FD4A4988700098C01CFFF7F0FD4749ED
:100EA00008700098401DFFF7EAFD444948704FE084
:100EB0000098401CFFF7E3FD04460098C01CFFF7B4
:100EC000DEFD05460098401DFFF7D9FD0746502C72
:100ED00016DB772C14DC20465038C4B22046E10FD4
:100EE00009184C102802C019C004C00CA1002F4AD8
:100EF0005050A000114609583148A200815010E01E
:100F0000802C0EDB912C0CDC20468038C4B2A10072
:100F1000264860304550A100415829486030A20061
:100F2000815015E00098401CFFF7A9FD0446009889
:100F3000C01CFFF7A4FD05461E480068400840009D
:100F4000401C1C49086003E028E002E000E000BF0C
:100F500000BF19480078401C1749087022E0174864
:100F6000007AC007C00F002814D11248007800078B
:100F7000C00F00280ED00F480068082188430D4993
:100F800008600E48007A40084000401C0B49087277
:100F9000FFF71BFE01200849087003E00020064906
:100FA000087000BF00BF00BF48E700003406002003
:100FB000A000002000000020180000209400002065
:100FC000C036004070B504460D46E007C00F00284B
:100FD00023D0FE48806A04218843FC498862FC488B
:100FE000006804218843001DF9490860084600781C
:100FF0008007C00F002810D0084600780006C00FF8
:1010000000280AD0F348006C012109060843F14981
:101010000864F149087D03F0E9FF70BD70B586B042
:1010200004460D4616461822EC496846FFF79AF822
:101030000022EB49684600F043FFFF20E349886047
:101040007D2169430846214605F004F8401EC0B2E0
:10105000DE4908617D20000270434862DC48007868
:101060000006C00F002807D0DE48C07A1C21884344
:101070000830DC49C87205E0DA48C07A1C21884390
:10108000D849C872D2480068102188431030D0492E
:10109000086006B070BD032807DDD249C97A890807
:1010A0008900C91CCF4AD17208E0CE49C97A8908A3
:1010B00089008207920F1143CA4AD172704710B556
:1010C000C8480078C007C00F002803D007210420BB
:1010D00000F08AFDC348006802210840002803D0C0
:1010E0000621042000F080FDBE480068042108406D
:1010F000002803D00521042000F076FDB9480068DF
:1011000008210840002803D00421084600F06CFDA7
:10111000B448006810210840002803D003210420AF
:1011200000F062FDAF48006820210840002803D08D
:101130000221042000F058FDAA4800684021084020
:10114000002803D00121042000F04EFDA5480068CE
:1011500080210840002803D00021042000F044FD35
:10116000A0480068FF2101310840002803D0052174
:10117000032000F039FD9B48006801214902084026
:10118000002803D00421032000F02EFD95480068BC
:10119000012189020840002803D00321084600F0FD
:1011A00023FD904800680121C9020840002803D0AF
:1011B0000221032000F018FD8A480068012109037C
:1011C0000840002803D00121032000F00DFD8048D5
:1011D00000684021884340307D49086010BD10B54B
:1011E00005220721042000F075FC022207210420BB
:1011F00000F05BFC05220621042000F06BFC0222BB
:101200000621042000F051FC05221146042000F0C4
:1012100061FC02220521042000F047FC0522042184
:10122000084600F057FC02220421084600F03DFC6D
:1012300005220321042000F04DFC0222032104209A
:1012400000F033FC05220221042000F043FC0222BE
:101250001146042000F029FC05220121042000F0A1
:1012600039FC02220121042000F01FFC052200218C
:10127000042000F02FFC02220021042000F015FCC5
:1012800005221146032000F025FC0222052103203F
:1012900000F00BFC05220421032000F01BFC0222BD
:1012A0000421032000F001FC05220321084600F080
:1012B00011FC02220321084600F0F7FB052202215F
:1012C000032000F007FC02221146032000F0EDFB92
:1012D00005220121032000F0FDFB02220121032051
:1012E00000F0E3FB05220021032000F0F3FB0222C3
:1012F0000021032000F0D9FB05220421022000F088
:10130000E9FB02220421104600F0CFFB0522032155
:10131000022000F0DFFB02220321104600F0C5FB93
:101320003048C07AC006400F8000801C27494863BF
:10133000F02008635520C862002088620846806A51
:101340000221084321498862264800680860254830
:101350004068486023480068C86000204861886190
:10136000C8610862204819494031086048608860B7
:10137000C860086148618861C86108624862886223
:10138000C862086300201149803188601548C07A1E
:101390008007800F0D494031486302211C2000F076
:1013A0005BF81C20002809DB00BF00BFC206D20E7C
:1013B000012191400D4A116000BF00BF00BF62B61D
:1013C0000248406B01210843004911E000600040E1
:1013D0000000002020370040D405002034620000C7
:1013E000C50F0000FC010020FFFF000000E100E04D
:1013F000486310BD10B534480078C006C00F0028FF
:1014000000D110BD31480078002804D001280AD04E
:1014100002281AD115E0FFF752FE2C480078401C34
:101420002A49087015E0284800788007C00F002876
:1014300006D0FFF7D4FE25480078401C23490870E9
:1014400007E023480068804703E000201F49087038
:1014500000BF00BF00BFD4E710B5002819DB1D4A4C
:1014600003231B02D21883089B00D2588307DC0E8B
:10147000FF23A3409A438B071B0E8407E40EA3406F
:101480001A43144B032424021B198408A4001A5184
:1014900018E0114A03071B0F083B9B089B00D2581A
:1014A0008307DC0EFF23A3409A438B071B0E8407A0
:1014B000E40EA3401A43084B0407240F083CA40879
:1014C000A4001A5110BD00000000002024000020DC
:1014D0002000002000E100E01CED00E070B58DB0C0
:1014E000002005E0002485006E467451441CE0B2E3
:1014F0000D28F7DB002109E07B4C246B01258D4092
:101500002C40002C00D003E04C1CE1B20829F3DB96
:1015100000BF00201EE0002217E0062A09DA84003E
:101520006D462C59012595402C4385006E4674511B
:1015300009E084006D462C59551C0126AE40344309
:1015400085006E467451541CE2B24C1CA242E4DB8E
:10155000441CE0B20828DEDB002020E0CC00634D14
:101560006419245CE407E40F002C07D084006D4666
:101570002C5940252C4385006E46745184006D46DD
:101580002C59CD00594EAD192D5C2D027F267602C7
:1015900035402C4385006E467451441CE0B2082847
:1015A000DCDB534B00200FE0062805DA84006D4693
:1015B0002C5985005C5105E084006D462D59441C72
:1015C000A4001D51441CE0B20828EDDB0DB070BD35
:1015D00030B503460C46002000210BE00D46654364
:1015E000AD005D59854203DD0D466543AD00585998
:1015F0004D1CE9B29142F1DB30BD70B500246CE0C6
:10160000A1003C484058A1003A4A1C3A5050364884
:10161000006B0121A1400840002859D0A1003548A5
:1016200042586430C36FC06F401C324964319B0024
:10163000C8671C20604348394018C2504831C86F01
:10164000072104F007FD2B486430C167A10064380E
:10165000465825498968A2008958234A4032527A5F
:1016600051430846642104F0FFFC002E01DB3146A3
:1016700000E0714288421BDD1F48005D401C1E498E
:1016800008550846005D022815DB00200855002596
:101690000BE0A100174842581C20604315491C313B
:1016A0004018A9004250681CC5B2072DF1DB02E0CA
:1016B0000020114908551C2161430E4A1C3288182C
:1016C00007220121FFF784FFA2000A49885002E0A7
:1016D000002009490855601CC4B203482030407DF1
:1016E000A0428DDC70BD0000B40500208C630000BA
:1016F00040600040240200202D00002072B60E48F9
:101700000E49086015200E490863512008638120A6
:101710000C494860282048600B4808630020486056
:101720007047002101E000BF491C084A126842438B
:101730008A42F8D870470000A095695A001A004004
:10174000C01F004000010040000358783C0000200A
:101750001448804714480047FEE7FEE7042071461E
:10176000084203D0EFF3098010490847EFF30880DF
:101770000E490847FEE7FEE7FEE7FEE70420714654
:10178000084203D0EFF3098009490847EFF30880C6
:1017900007490847FEE7000006480749074A084B83
:1017A00070470000FD160000C10000005B1700003C
:1017B000534A000040070020400F0020400B00204B
:1017C000400B002053480078042802D10620C04373
:1017D000704750480078002818D101208007806A9F
:1017E00010218843890688620846006B10218843CF
:1017F000890608630846806A1021084389068862C2
:101800000846006B102108438906086341480078A8
:10181000401C404908700020DAE73E480078002864
:1018200001D1C01F70473B480078401E39490870FD
:101830000846007800280CD101208007806A10211A
:101840008843890688620846006B10218843890610
:1018500008630020E6E770B505460C462E48405D5B
:10186000002802D00220C04370BD284600F04CF88A
:10187000064600203060207800020F21090208404F
:10188000617889000C2211400843A17849000222A6
:1018900011400843306001201F4948550020E3E70C
:1018A000014600201C4A50547047FFB581B00D46D8
:1018B00016461F46019800F027F80446206817498D
:1018C0000840206020683904084320602068022115
:1018D00008404008002802D1A660E56001E0A5604C
:1018E000E6606068012108436060002005B0F0BD3B
:1018F00070B50546284600F007F8044660684008C1
:1019000040006060002070BD01460801044A801854
:10191000704700004000002041000020FFFF00F061
:101920000004004010B502460B46002118E00C20D0
:101930004843FE4C205C904207D10C2048430019DC
:101940004078984201D148B210BD0C204843F74C72
:1019500000194068002801D148B2F5E7481CC1B21F
:101960000429E4DB0020C043EEE7FFB581B0054663
:101970000E46174631462846FFF7D4FF0446601C42
:10198000002802D1C01F05B0F0BD0C206043E7491C
:101990000D540C206043401846700C2060434018E2
:1019A00047600C216143E14A89180498886000204F
:1019B000E9E770B505460E46DD48405D002800D0D9
:1019C00070BD284600F06CFA0446002C05DBE106E9
:1019D000C90E01208840D749086000BF284600F0A2
:1019E0005FFA0446314600F01DFA284600F058FA26
:1019F0000446002C09DB00BF00BFE106C90E012030
:101A00008840CD49086000BF00BF00BF0120C84921
:101A1000485500BFD4E770B501208007806A3F2198
:101A2000090208430121890788620846006B3F21AB
:101A300009020843012189070863002531E028468F
:101A400000F029FA0446012D08D10020A061BB480E
:101A500020602803A0600020E0601DE0042D08D174
:101A60000020A061B64820600020A060A803E060CC
:101A700012E0052D08D10020A061B2482060B248D4
:101A8000A0600020E06007E00020A061AB48403883
:101A900020600020A060E060002060602061681C81
:101AA000C5B2062DCBDB002070BDF7B50C4616463F
:101AB000009800F0F0F907463D6861000320884077
:101AC000294681430D4661003046884005433D600C
:101AD0000020FEBDF7B50E46009800F0DCF9074681
:101AE000072E0EDD304608388006040EFD680F20F4
:101AF000A040294681430D460298A0400543FD6061
:101B00000BE0B006040EBD680F20A04029468143BB
:101B10000D460298A0400543BD600020FEBDF7B50C
:101B20000C461646009800F0B6F907467D6801207D
:101B3000A040294681430D463046A04005437D60C4
:101B40000020FEBDF7B50C461646009800F0A3F93C
:101B500007463D69610003208840294681430D46C0
:101B600061003046884005433D610020FEBDF7B569
:101B70000C461646009800F08EF90746BD6A012013
:101B8000A040294681430D46002E02D00120A040EE
:101B90000543BD620020FEBD30B504460D46002160
:101BA000230004F038FB060405061011121D00BFC7
:101BB00000BF6648C169C90AC90228020843104328
:101BC000624BD8610DE000BF00BF6048C16960484A
:101BD000014028060843130418435C4BD86100E019
:101BE00000BF00BF002030BD70B505460C4628463A
:101BF00000F051F906460120A040F061002070BDC0
:101C000070B505460C46284600F045F90646012009
:101C1000A0403062002070BDF7B50D461446009814
:101C200000F039F90646706987B238462841C00786
:101C3000C00F002802D00120207001E00020207099
:101C40000020FEBD70B505460C46284600F023F97D
:101C50000646B461002070BD70B505460C462846A6
:101C600000F019F9064670692080002070BDFFB5AC
:101C700081B00C46019800F00EF90546EE6A6F6BD4
:101C8000286B0090610003208840314681430E4656
:101C9000610003208840394681430F4661000320DC
:101CA00088400099084300906100039888400643EB
:101CB0006100049888400743EE626F6300982863D0
:101CC0000A990198FFF775FE002005B0F0BDF3B545
:101CD00083B00D46039800F0DEF80446E76A606BB7
:101CE0000290206B019069000320884039468143AF
:101CF0000F466800032181400298884302906900E2
:101D000003208840019908430190E76202986063CC
:101D100001982063002F32D1039800F0C1F80646E5
:101D2000002E2ADBF106C90E012013E0700400200A
:101D30004500002080E200E000E100E095555555A7
:101D4000555555565AAA5555330044448000004015
:101D5000FFFF00F888405649086000BF00BF00BF81
:101D6000BFF34F8F00BF00BF00BF00BF00BF00BF69
:101D7000BFF36F8F00BF00BF00BF00BF00BF0020D8
:101D800005B0F0BDFEB50646304600F084F801907F
:101D90000198006B00900C207043464944180025C0
:101DA00020E069000098C8408007800F002817D005
:101DB000002712E00C2078433E4944182078B042B6
:101DC00009D16078A84206D16068002802D0616815
:101DD000A068884703E0781CC7B2042FEADB00BF85
:101DE000681CC5B20D2DDCDB019900980863FEBDAF
:101DF00010B50020FFF7C6FF0120FFF7C3FF10BD9D
:101E000010B50220FFF7BEFF0320FFF7BBFF10BD98
:101E100010B50420FFF7B6FF10BD10B50520FFF781
:101E2000B1FF10BD10B500281BDB214A803A032307
:101E30001B02D21883089B00D2588307DC0EFF23B5
:101E4000A3409A438B071B0E8407E40EA3401A435A
:101E5000174B803B032424021B198408A4001A5149
:101E600018E0154A03071B0F083B9B089B00D2583C
:101E70008307DC0EFF23A3409A438B071B0E8407C6
:101E8000E40EA3401A430C4B0407240F083CA4089B
:101E9000A4001A5110BD01460802084A8018704774
:101EA00001460A46C80F80184010C01C40B2704757
:101EB00080E100E0700400201CED00E00010004014
:101EC00070B504460D4616469A48056046600120E6
:101ED0008007C06A0121490788434900C862084653
:101EE000406B49108843490048630846C06A49105E
:101EF00008434900C8620846406B4910084349003E
:101F0000486320788C49886020790861A0680003C4
:101F1000000B486200208862207B002819D0084608
:101F2000806A217B490008438349886203211C2081
:101F300000F0C8F81C20002809DB00BF00BFC20663
:101F4000D20E012191407D4A116000BF00BF00BF49
:101F500006E07948806A217B490088437649886297
:101F6000607B002806D07448006B08210843724942
:101F700008630DE07048006B082188436E490863D0
:101F80000846006BA17B4907490F08436A4908636B
:101F9000E07B00280DD06848006B1021084366499B
:101FA0000863207C0001617C0843C0B26249C862BA
:101FB00007E06148006B102188435F4908630020F7
:101FC000C862608A002804D0608A5B4980318860DA
:101FD00003E00020584980318860207D002804D02B
:101FE000207D55498031C86003E00020524980318E
:101FF000C860607D8000801C4F494863002070BD30
:102000004D48406B012108434B494863002070470D
:102010004948406B400840004749486300207047EA
:1020200030B503460C46002B19D101208007816B87
:1020300005150846A8430146280581634048006A03
:10204000C00AC0023E4D28622846006A2502284385
:102050003B4D28622846006A104328620AE00120AE
:102060008007816B05150846A843014628460143B1
:1020700000058163002030BD1CB5002001902E4872
:10208000806A0421084000902B48806A88432A49CE
:1020900088622848006800280FD068460078002829
:1020A00003D001210198084301900198002804D031
:1020B000204841680268019890471CBD10B5FFF7A1
:1020C000DBFF10BD10B5002819DB1C4A03231B02DF
:1020D000D21883089B00D2588307DC0EFF23A3404D
:1020E0009A438B071B0E8407E40EA3401A43134B3D
:1020F000032424021B198408A4001A5118E0114A71
:1021000003071B0F083B9B089B00D2588307DC0E7C
:10211000FF23A3409A438B071B0E8407E40EA340C2
:102120001A43084B0407240F083CA408A4001A51C2
:1021300010BD00004C0000200060004000E100E005
:10214000800000401CED00E055207D4A50601046A4
:1021500080680107090F7B480843906000207047A2
:1021600030B504460B467848784948620846456AC7
:10217000012C08D128464913884305210905084345
:102180007249486205E028462921490408436F49FD
:102190004862FFF7D9FF002B08D001208007406874
:1021A0001902084301218907486008E001208007DF
:1021B000406807210902884301218907486030BD32
:1021C000F8B505460E46174600242878044320201B
:1021D0000443802004435A4804605D480660476019
:1021E0006978002000F073F80020002809DB00BFA8
:1021F00000BFC206D20E01219140564A116000BFB5
:1022000000BF00BF0020F8BD4D4800688021884312
:102210004B4908600020002816DBC206D20E0121BF
:1022200091404C4A8032116000BF00BF00BFBFF335
:102230004F8F00BF00BF00BF00BF00BF00BFBFF394
:102240006F8F00BF00BF00BF00BF00207047014676
:10225000002208780F23181A02433F481043384BD6
:1022600098600020704700203C49086100BF00BF13
:1022700000BFBFF34F8F00BF00BF00BF30BF00BF24
:1022800000BF00BF00BF704710B504210220FFF758
:1022900067FF04203149086100BF00BF00BFBFF3E2
:1022A0004F8F00BF00BF00BF30BF00BF00BF00BFE7
:1022B00000BF10BD10B52248006810210843204916
:1022C00008602348416802680020904710BD10B59F
:1022D000002819DB1F4A03231B02D21883089B0026
:1022E000D2588307DC0EFF23A3409A438B071B0EB3
:1022F0008407E40EA3401A43164B032424021B193F
:102300008408A4001A511AE0144A1C3203071B0F58
:10231000083B9B089B00D2588307DC0EFF23A34099
:102320009A438B071B0E8407E40EA3401A430B4B02
:102330001C330407240F083CA408A4001A5110BD44
:102340000051004000AAA5727F01500040000040EB
:102350005400002000E100E00000A57200ED00E064
:10236000F849884209D88121F74A516028215160F3
:10237000F64911630021516022E0F549884209D8ED
:102380008121F14A516028215160F24911630021F5
:10239000516015E0F049884209D88121EA4A51602C
:1023A00028215160ED4911630021516008E081212D
:1023B000E54A516028215160E949116300215160CB
:1023C0007047F8B505460E46E649E748006803F051
:1023D00041FE1521484307462B0003F01CFF08056A
:1023E0002B54BEBEBE799FBED748C03804680F21AB
:1023F000090220468843044630020443DB48204358
:10240000D149C03908600020009002E00098401CCB
:1024100000900098B842F9D3CB48C0384468E4082B
:10242000E400204628430446D1482043C649C03929
:10243000486093E0C448C03804680F21090320466F
:102440008843044630030443C8482043BE49C0398A
:1024500008600020009002E00098401C0090FF20DF
:10246000F530784300998842F6D8B748C0384468B8
:10247000E408E400204628430446BD482043B2490E
:10248000C03948606AE0B048C0380468F02120468E
:102490008843044630010443B4482043AA49C03964
:1024A00008600020009002E00098401C0090009816
:1024B000B842F9D3A448C0384468E408E400204690
:1024C00028430446AA4820439F49C039486045E054
:1024D0009D48C0380468240924012046304304463E
:1024E000A24820439849C03908600020009002E0CB
:1024F0000098401C00900A20784300998842F7D841
:102500009148C0384468E408E40020462843044663
:10251000974820438C49C03948601FE09548807E29
:1025200000280CD18848C0384468E408E40003203F
:1025300004438F4820438449C03948600CE08248F6
:10254000C0384468E408E40020462843044688482C
:1025500020437D49C039486000E000BF00BFF8BD9E
:1025600010B504462078072804D18248007E01284F
:1025700000D000BF61782078FFF723FF20787D49E5
:1025800048767D49606808607749606808607A49E4
:102590000968122251430846784903F05BFD7849E7
:1025A00008607848FFF7DCFE002010BDFEB5054648
:1025B0000027002001906B496B48006803F04AFD3A
:1025C0001521484306466879012823D15E48C03862
:1025D0000468240A240288200443644820435A499A
:1025E000C03908600020009002E00098401C009074
:1025F0000A20704300998842F7D85348C03844688D
:10260000E408E40006200443594820434E49C039F9
:10261000486022E04C48C0380468240A2402A820FC
:102620000443524820434849C039086000200090C4
:1026300002E00098401C00900A20704300998842F4
:10264000F7D84148C0384468E408E4000220044355
:10265000474820433C49C03948602879C007C00A30
:10266000012149050843E9784907490B084369787E
:1026700009020843A9780907090E084329780907C0
:10268000090F08433049C03908620846006A091238
:1026900008432D49C039086200BF2B48C038006A82
:1026A0000121C90588432849C03908620846006AE3
:1026B000C91108432449C03908620020009002E093
:1026C0000098401C009000987028F9D308E0384624
:1026D0007F1CFF219131884202D90120019006E040
:1026E0001948C038006AC00FC0070028EFD000BFEB
:1026F000012020490876687988760198002802D060
:102700000320C043FEBD0020FCE702461948407E7E
:10271000904201D1002070470B48C0380168002A60
:1027200006D0012A30D0022A37D0062A41D13BE018
:102730000F231B020846984301460120C0020143B3
:1027400038E00000002D3101000100400000587801
:10275000005A620200015878006CDC0200025878CE
:102760000003587820A1070038000020000007A5CA
:1027700000000A57A00400203400002040420F004F
:102780003C00002000E1F5050F231B030846984399
:1027900001460120C00301430CE0F02308469843A2
:1027A00001468020014305E0090909010820014391
:1027B00000E000BF00BFE8480843E84B1860002075
:1027C000A9E70246E5480168002A06D0012A0AD096
:1027D000022A0ED0062A14D110E00F231B0208464D
:1027E000984301460EE00F231B0308469843014619
:1027F00008E0F02308469843014603E0090909016F
:1028000000E000BF00BFD4480843D44B186000204C
:102810007047F8B506460C4615461F46022E19D0DD
:10282000062E02D00A2E1FD109E0CC488068C021B4
:102830000843CA498860CA480460456014E0C74834
:102840008068032189020843C4498860C4488460C1
:10285000C56009E0C14880680C210843BF49886011
:10286000BF480461456100BF00BF0120002805DBAF
:10287000C206D20E01219140BA4A116000BF39460A
:10288000012000F031F90120002809DB00BF00BF62
:10289000C206D20E01219140B34A116000BF00BFB1
:1028A00000BF0020F8BD0146022913D0062902D03E
:1028B0000A2916D106E0A9488068C0229043A74A99
:1028C00090600EE0A5488068032292029043A34ADC
:1028D000906006E0A14880680C2290439F4A906077
:1028E00000BF00BF9D48806800281BD10120002840
:1028F00016DBC306DB0E01229A409B4B80331A6025
:1029000000BF00BF00BFBFF34F8F00BF00BF00BFBD
:1029100000BF00BF00BFBFF36F8F00BF00BF00BF8D
:1029200000BF00BF0020704702468C48016949097A
:1029300049011007000F014310200843874B18611D
:102940000020704785480069102188438349086149
:1029500000207047014601208007006908430122DA
:10296000920710610020704701460120800700692E
:102970008843012292071061002070470146012020
:102980008007806908430122920790610020704708
:10299000014601208007806908400122920790616A
:1029A00000207047014601208007C2690A600020AC
:1029B000704701460120800742690A600020704785
:1029C000024601208007816B0312084698430146A6
:1029D00090050143180281630020704702460120E0
:1029E0008007816B83120846984301461005014316
:1029F0009802816300207047024601208007816BA6
:102A00004313084698430146500401435803816329
:102A100000207047024601208007816B031508469D
:102A200098430146900201431805816300207047D6
:102A3000024601208007816B18230846984301460F
:102A4000D0000143012080078163002070470246C7
:102A500001208007816B4908490008461043014660
:102A60000120800781630020704702460120800713
:102A7000816B4023084698430146900101431806A4
:102A800081630020704710B53448806820210843D6
:102A90003249886008468068022108432F498860CF
:102AA00008468068491508432C4988602C4800680E
:102AB000002805D02A48416802682020904712E08B
:102AC00027480069002805D025484169026902208D
:102AD000904708E022488068002804D02048C16858
:102AE00082680220904710BD10B5002819DB1E4AED
:102AF00003231B02D21883089B00D2588307DC0EE5
:102B0000FF23A3409A438B071B0E8407E40EA340C8
:102B10001A43154B032424021B198408A4001A51DC
:102B200018E0124A03071B0F083B9B089B00D25872
:102B30008307DC0EFF23A3409A438B071B0E8407F9
:102B4000E40EA3401A43094B0407240F083CA408D1
:102B5000A4001A5110BD0000000007A5400000406D
:102B6000A004002080E200E000E100E01CED00E0B5
:102B70000146042907DA032903D00802FB4A80181A
:102B80007047FB48FCE7081F0002FA4A8018F7E785
:102B90000146042906DA032902D0C81D40B2704755
:102BA0001520FCE708460B3040B2F8E730B5034685
:102BB0000C4600211078002806D0012808D00228F1
:102BC0000CD0032816D10FE000BF1078187014E065
:102BD000012000030143107818700EE0012040032B
:102BE00001431078187008E00320000301431078B7
:102BF000187002E00520C04330BD00BF50780028A7
:102C000004D0012803D002280BD106E000BF012523
:102C1000AD030846A843014606E0012080030143B6
:102C200002E00520C043E7E700BF5088D24DA8422C
:102C300002DD0520C043DFE721605088401E00050B
:102C4000000D206120680125284320600020D3E783
:102C500070B50446002C0ED101208007806A012146
:102C600009048843890388620846006B89138843F6
:102C7000890308634CE0012C0CD1A007806A610431
:102C80008843490388620846006B49138843490317
:102C900008633DE0022C0CD16007806A6104884320
:102CA000090388620846006B091388430903086317
:102CB0002EE0032C0ED101208007806A0121C90477
:102CC0008843C90288620846006BC9128843C9025A
:102CD00008631DE0042C0CD12007806AE1058843BD
:102CE000490188620846006B49118843490108631D
:102CF0000EE0052C0CD1A007806A012189068843CB
:102D0000090188620846006B0911884309010863BC
:102D10002046FFF73DFF0546002D15DBE906C90EED
:102D2000012088409549086000BF00BF00BFBFF385
:102D30004F8F00BF00BF00BF00BF00BF00BFBFF389
:102D40006F8F00BF00BF00BF00BF002070BDFFB588
:102D500083B004460F460C2060438949451820463D
:102D6000FFF706FF0290002028606860A8600598C1
:102D700068600698A860002C1AD101208007806A3C
:102D8000012109048843890388620846006B89137E
:102D90008843890308630846806A891308438903C6
:102DA00088620846006B891308438903086388E03A
:102DB000012C18D1A007806A610488434903886206
:102DC0000846006B49138843490308630846806A34
:102DD00049130843490388620846006B49130843B6
:102DE000490308636DE0022C18D16007806A610412
:102DF0008843090388620846006B09138843090366
:102E000008630846806A0913084309038862084674
:102E1000006B091308430903086352E0032C1AD11D
:102E200001208007806A0121C9048843C9028862A1
:102E30000846006BC9128843C90208630846806AC5
:102E4000C9120843C90288620846006BC9120843C8
:102E5000C902086335E0042C18D12007806AE10517
:102E60008843490188620846006B4911884349013B
:102E700008630846806A4911084349018862084688
:102E8000006B49110843490108631AE0052C18D169
:102E9000A007806A012189068843090188620846E3
:102EA000006B09118843090108630846806A09110B
:102EB0000843090188620846006B091108430901AB
:102EC00008633A4628460299FFF770FE0190019880
:102ED000002805D02046FFF7BBFE019807B0F0BDE3
:102EE0002046FFF755FE0646002E05DBF106C90E0B
:102EF000012088402349086000BF2046FFF748FEB4
:102F00000646397900F0B4F92046FFF741FE06463F
:102F1000002E0ADB00BF00BFF106C90E0120884069
:102F200016498039086000BF00BF00BF0198D5E78F
:102F300070B505460C462846FFF71AFE064630686F
:102F40000C2108402070002070BD70B506460D466B
:102F500000BF3046FFF70CFE0446681E6060206824
:102F60000121C90308432060002070BD00210040FA
:102F70000027004000250040FF0F000080E100E036
:102F8000BC04002080E200E0FFB581B005460E469B
:102F90000A9F0C206843D249401800902846FFF74A
:102FA000E7FD0446F807C00F002803D02068202161
:102FB0000843206000984770049860600398A06000
:102FC000002E05D12068FF2101310843206004E074
:102FD0002068FF2101318843206020680121C90356
:102FE00008432060002005B0F0BD70B506460D46D0
:102FF00000BF3046FFF7BCFD04462068C02188436F
:1030000020602068A901084320600020C043606060
:1030100020680121C90308432060002070BD70B5FD
:1030200005462846FFF7A4FD044620680121C90390
:1030300088432060002070BD70B505460C462846C8
:10304000FFF796FD064670692060002070BD70B5E0
:1030500004462046FFF78CFD05460120286000202D
:1030600070BDF8B506460C4615463046FFF780FDA4
:103070000746002D02D1F868206002E09948C06838
:1030800020600020F8BDFFB581B00D4616461F46F2
:103090000198FFF76DFD00909348864203DD0520FF
:1030A000C04305B0F0BD0198042826DA002D1CD1DC
:1030B00001208007846B01122046884304460802E1
:1030C00084638A4800698A4908408849086108463B
:1030D00000693906084385490861084600690A996C
:1030E00009040843814908612CE001208007846BB2
:1030F000001204430002846324E0002D1BD1012050
:103100008007846B811220468843044688028463CA
:1031100076484069C00AC00274494861084640695F
:103120003902084371494861084640690A990843D1
:103130006E49486106E001208007846B80120443D9
:1031400080028463701E0105090D00980161002052
:10315000A7E7F8B507460E4615463846FFF708FDBF
:103160000446002E04D0012E0FD0022E19D100E00B
:1031700000BF002D04D0206820210843206003E018
:1031800020682021884320600EE0002D04D02068B4
:1031900010210843206003E020681021884320604C
:1031A00002E00520C043F8BD00BF0020FBE77CB56E
:1031B0000646002001900C207043494944183046CF
:1031C000FFF7D6FC054628680C21084000902868C7
:1031D00008432860606800282BD0684600780421E6
:1031E0000840002807D0207801281BD1022101982F
:1031F0000843019016E02078002802D020780228A9
:1032000004D101210198084301900BE020780328A4
:1032100008D16078C007C00F002803D004210198AE
:10322000084301900198002803D06268A1680198C2
:1032300090477CBD10B50020FFF7B9FF10BD10B559
:103240000120FFF7B4FF10BD10B50220FFF7AFFF5C
:1032500010BD10B50320FFF7AAFF10BD10B5042064
:10326000FFF7A5FF10BD10B50520FFF7A0FF10BDAB
:1032700010B5002819DB1F4A03231B02D21883084C
:103280009B00D2588307DC0EFF23A3409A438B0791
:103290001B0E8407E40EA3401A43164B032424029A
:1032A0001B198408A4001A5118E0134A03071B0FC6
:1032B000083B9B089B00D2588307DC0EFF23A340EA
:1032C0009A438B071B0E8407E40EA3401A430A4B54
:1032D0000407240F083CA408A4001A5110BD0000E4
:1032E000BC04002000250040FF0F000080000040CB
:1032F000FFFF00F800E100E01CED00E0F0B585B054
:103300000E46154600242879002806D0012805D04D
:10331000022804D0032806D102E000BF00BF00BF8E
:103320002879044303E00520C04305B0F0BD00BF89
:103330006879002806D0012809D002280ED0032879
:1033400016D110E0082120468843044613E00820E7
:10335000044310212046884304460CE0082004431F
:103360001020044307E0082004432020044302E027
:103370000520C043D9E700BFA879002802D0012862
:1033800008D104E0042120468843044605E00420D7
:10339000044302E00520C043C7E700BFF460F848DB
:1033A000006847082868010103913846039902F034
:1033B00051FE0290039902984843391A00910099EE
:1033C0000802039902F046FE0190029880B2306232
:1033D0000198C0B270620020A7E770B50546002DC5
:1033E0000ED101208007C06A0121090388438904A6
:1033F000C8620846406B89148843890448630DE01D
:10340000012D0BD1A807C06A690388434904C8622B
:103410000846406B4914884349044863284600F035
:1034200053FB0446002C15DBE106C90E0120884041
:10343000D449086000BF00BF00BFBFF34F8F00BF7B
:1034400000BF00BF00BF00BF00BFBFF36F8F00BF52
:1034500000BF00BF00BF002070BDFFB583B00E46A7
:10346000282103984843C8494718039800F027FBD0
:1034700004462821384602F0EBFD0598386006988E
:103480007860C248844218D10004C06AA1148843FD
:103490008904C8620846406B8914884389044863DC
:1034A0000846C06A891408438904C8620846406B0C
:1034B00089140843890448631AE0B548844217D147
:1034C0008005C06A611488434904C8620846406B9D
:1034D00049148843490448630846C06A49140843AC
:1034E0004904C8620846406B4914084349044863CC
:1034F00001E0206802906069C007C00F0028F8D181
:1035000000BF6069202108400028FAD000206060D8
:10351000E060206160690290A06802903246214616
:103520003846FFF7EBFE01900198002805D003987C
:10353000FFF753FF019807B0F0BD039800F0C4FAFD
:103540000546002D05DBE906C90E0120884091499A
:10355000086000BF039800F0B7FA0546F17900F063
:1035600077FA039800F0B0FA0546002D0ADB00BF99
:1035700000BFE906C90E01208840824980390860F1
:1035800000BF00BF00BF0198D5E7FFB581B0074677
:10359000282078437C494418384600F090FA0546C4
:1035A0002420005D00017C494618207AC007C00F26
:1035B000002803D00220C04305B0F0BDA068400839
:1035C0004000401CA0600298E06003986061002009
:1035D000E0610498002815D10BE0E069411CE1612D
:1035E000E168095C296000BF686920210840002863
:1035F000FAD0E16960698842EFD8A06840084000CD
:10360000A06029E02520005D002816D068682021F0
:10361000084368602420005D6369E1682A460090E1
:10362000FEF743F900BF7068802108400028FAD0F7
:1036300070684008400070600EE068692021084012
:10364000002805D0E069411CE161E168095C29605E
:1036500068680221084368600020ADE7FFB583B0C9
:1036600007462820784348494418384600F027FA8E
:1036700005462420005D000147494618207A80074E
:10368000C00F002803D00220C04307B0F0BD0221C4
:10369000A0688843801CA060049820610598A06100
:1036A00000202062069800282ED124E0002100BFCF
:1036B0006869C007C00F0028FAD068690822104066
:1036C00001436869042210400143686902221040E6
:1036D0000143002905D0A0689043A0600820C043A2
:1036E000D3E72A680292029AD3B2206A421C22626D
:1036F0002269135400BF216AA0698842D6D80221EA
:10370000A0688843A0601EE02720005D002816D036
:1037100068681021084368602620005DA36922695B
:1037200029460190FEF7C1F800BF7068802108406B
:103730000028FAD0706840084000706003E06868B4
:1037400001210843686000209FE770B506462820E5
:1037500070430D494418304600F0B1F90546E86859
:1037600040210843E860E8688843E860A0684008B2
:103770004000A0600221A0688843A060002070BDC6
:103780003400002080E100E00405002000400040FB
:103790000041004080E200E000040040F8B504462B
:1037A0000D46164628206043CA4947182520C655AD
:1037B0002420C555002E0ED00020009000BF6000D0
:1037C000801CC0B269460870FDF7FCFF69462846B8
:1037D000FEF741F803E02421C85DFEF761F8002000
:1037E000F8BDF8B504460D46164628206043B94991
:1037F00047182720C6552620C555002E0FD0B6489D
:103800000068009000BF6000401CC0B269460870AC
:10381000FDF7D8FF69462846FEF71DF803E026218C
:10382000C85DFEF73DF80020F8BD70B505460C46B2
:10383000284600F044F906467069402108400028F7
:1038400002D00020207001E001202070002070BD17
:1038500070B505460C46284600F031F906467069F9
:103860004006400E2070002070BD70B505460C4625
:10387000284600F024F906463463002070BDF7B5F1
:103880000D4617460026009800F019F904462B0053
:1038900002F0C1FC0604060A080C0E1001260CE01A
:1038A00002260AE0082608E0042606E0102604E0C6
:1038B000202602E00520C043FEBD00BF002F03D03C
:1038C00060683043606002E06068B0436060002080
:1038D000F2E7F0B585B0064600200190282070433D
:1038E0007C494418304600F0EAF8054668680490C0
:1038F000A8680390062103980840062831D10421C6
:1039000001980843019068690290102102980840CC
:10391000002803D00821019808430190082102984B
:103920000840002803D01021019808430190042189
:1039300002980840002803D02021019808430190F4
:10394000022102980840002803D040210198084332
:1039500001902868C1B20091002068606846007834
:1039600060E010210498084010280FD10221A068BF
:103970008843A060002127200155686810218843F2
:10398000686002210198084301901AE0042103981D
:103990000840002815D02F68226A21698F54206AB8
:1039A000401C2062216AA06988420AD10221A068D5
:1039B0008843A06068684008400068600198084338
:1039C000019020210498084020280FD1A0684008C9
:1039D0004000A0600021252001556868202188430F
:1039E000686001210198084301901BE002210398BF
:1039F0000840002816D0E1696069884206D0E06975
:103A0000411CE161E168095C29600BE0A0684008A5
:103A10004000A06068680221884368600121019825
:103A2000084301902068002806D00198002803D0A0
:103A3000226861680198904705B0F0BD10B500207C
:103A4000FFF747FF10BD10B50120FFF742FF10BD83
:103A500010B5002819DB214A03231B02D218830862
:103A60009B00D2588307DC0EFF23A3409A438B07A9
:103A70001B0E8407E40EA3401A43184B03242402B0
:103A80001B198408A4001A5118E0154A03071B0FDC
:103A9000083B9B089B00D2588307DC0EFF23A34002
:103AA0009A438B071B0E8407E40EA3401A430C4B6A
:103AB0000407240F083CA408A4001A5110BD0146B5
:103AC0000802084A8018704701460846133040B281
:103AD00070470000040500201464000000E100E0CD
:103AE0001CED00E000400040F0B585B00C461646E5
:103AF00000253078002802D0307801287DD1206858
:103B00000321890388432060307A030002F083FB9D
:103B10000504050607080C0000BF00BF00BF00BF7A
:103B2000307A4002054303E00520C04305B0F0BDF4
:103B300000BF707A002804D002280CD0032812D1CC
:103B400005E0032109032846884305460EE00320CB
:103B5000000305430AE0012109032846884305467E
:103B60004800054302E00520C043DFE700BF2068AE
:103B7000284320600025B07A002802D0012808D10F
:103B800004E0042128468843054605E00420054357
:103B900002E00520C043C9E700BF65606068FF21FF
:103BA0000131884360606068890008436060FE48B6
:103BB000006803907068000102900299039802F077
:103BC00049FA471E052F0FD86068FF2101310843CD
:103BD0006060F548006803907068C0000290029928
:103BE000039802F037FA471E029878430399091A9E
:103BF000009100990802029900E05BE002F02AFAC5
:103C00000190B8B220610198C0B2A061307801285B
:103C10004FD1206803218903884320602068012157
:103C2000890308432060307B002806D0022809D190
:103C3000206880210843206005E0206880218843B7
:103C4000206000E000BF00BFB07B002802D0012848
:103C500012D108E06068802108436060606820211C
:103C60000843606009E060688021884360606068A4
:103C700020210843606000E000BF00BFCA48006820
:103C800003907068400002900299039802F0E2F9F4
:103C9000471E029878430399081A00900099080279
:103CA000029902F0D7F90190B8B220610198C0B230
:103CB000A06197E030780328FBD1206803218903B5
:103CC00008432060307A030002F0A5FA05040506D7
:103CD00007080C0000BF00BF00BF00BF307A4002E1
:103CE000054302E00520C04320E700BFF07A00282A
:103CF00002D001280AD103E0FF200130054306E08D
:103D0000FF21013128468843054600E000BF00BF7F
:103D1000307B002812D0012819D0022802D00328B5
:103D20001CD106E0802005434021284688430546F3
:103D300015E0802005434020054310E080212846FF
:103D400088430546402128468843054607E08021F0
:103D50002846884305464020054300E000BF00BFD9
:103D60002068284320600025B07B002802D001286D
:103D700008D102E08020054305E0802128468843E1
:103D8000054600E000BF00BF707B002806D0012878
:103D900007D1102128468843054603E0102005433B
:103DA00000E000BF00BF6068284360607E48006894
:103DB00003907068400002900299039802F04AF95B
:103DC000471E3946029841430398411A00910099D1
:103DD0000802029902F03EF90190B8B22061019800
:103DE000C0B2A061206803210843206060680121FF
:103DF000490208436060002098E670B50546002D32
:103E00000ED101208007C06AFF2101318843890556
:103E1000C8620846406B89158843890548630DE0F0
:103E2000012D0BD1A807C06A690288434905C86201
:103E30000846406B4915884349054863284600F009
:103E4000AEFC0446002C15DBE106C90E01208840BB
:103E50005649086000BF00BF00BFBFF34F8F00BFCF
:103E600000BF00BF00BF00BF00BFBFF36F8F00BF28
:103E700000BF00BF00BF002070BDFFB581B00E467F
:103E80002821019848434A494718019800F082FCCC
:103E900004462821384602F0DBF80398386004987D
:103EA00078604448844219D101208007C06AA11576
:103EB00088438905C8620846406B8915884389058F
:103EC00048630846C06A891508438905C8620846E0
:103ED000406B89150843890548631AE036488442D7
:103EE00017D18005C06A611588434905C862084634
:103EF000406B49158843490548630846C06A49151F
:103F000008434905C8620846406B491508434905FE
:103F10004863002020606060324621463846FFF743
:103F2000E3FD00900098002805D00198FFF765FF99
:103F3000009805B0F0BD019800F031FC0546002D59
:103F400005DBE906C90E012088401C49086000BF56
:103F5000019800F024FC0546F17B00F0E4FB019899
:103F600000F01DFC0546002D0ADB00BF00BFE9067E
:103F7000C90E012088400D498039086000BF00BF8C
:103F800000BF0098D5E7FFB581B0164628210198FB
:103F9000484307494418019800F0FCFB0546207A85
:103FA0008007C00F00280BE03400002080E100E013
:103FB00054050020003800400039004080E200E055
:103FC00004D1207AC007C00F002803D00220C043CC
:103FD00005B0F0BD002E04D0A06840084000401C91
:103FE000A0600A98002804D00221A0688843801CA1
:103FF000A06066610A98A06100202062E0610498D8
:1040000020610298E0600B9800287DD165E0686827
:1040100080210840002839D0E1696069884209D8C8
:1040200000BF8021284600F0C3FB0028F9D0FF2004
:1040300068610EE000BF8021284600F0B9FB00282F
:10404000F9D0E168481CE0600F786F61E069401CBE
:10405000E0610CE04021284600F0AAFB002806D0D1
:104060002021284600F0A4FB002800D000E0F1E762
:1040700000BF6F69216AA06988422DD92269501C4E
:1040800020611770206A401C206225E000BF2021BB
:10409000284600F08DFB0028F9D06F69216AA069DD
:1040A000884206D92269501C20611770206A401C82
:1040B0002062E169606988420ED900BF80212846EC
:1040C00000F076FB0028F9D0E168481CE0600F782A
:1040D0006F61E069401CE06100BF216AA06988420D
:1040E00095D8E1696069884291D80221A068884327
:1040F000A060A06840084000A0600421284600F0AD
:1041000057FB002837D000E006E0A06840084000D8
:10411000A0600820C0435BE72520005D002803D194
:104120002720005D002816D06868802108400028FC
:1041300008D02422105D2A4614326369E168FDF735
:10414000B4FB18E02621085D29461431A3692269D1
:10415000FDF7ABFB0FE0686880210840002804D021
:10416000286820210843286005E00020686128684D
:1041700008210843286000202AE7FFB583B00746DE
:104180001E4628207843FE494418384600F002FBBA
:1041900005462868032189030840884209D1002088
:1041A0000346019600903846059A0499FFF7EBFE06
:1041B0003DE0207AC007C00F002803D00220C04392
:1041C00007B0F0BDA06840084000401CA060049803
:1041D000E060059860610020E061002E15D10BE0E1
:1041E000E169481CE061E068405C686100BFE86824
:1041F000802108400028FAD0E16960698842EFD840
:10420000A06840084000A06011E02520005D002863
:1042100009D02420005D6369E1682A4614320290C7
:10422000FDF743FB03E028682021084328600020B5
:10423000C6E7FFB583B00E461746282103984843CA
:10424000CF494418039800F0A5FA054628680321D1
:1042500089030840884209D1069833460022114656
:10426000009701900398FFF78EFE3FE0207A8007C9
:10427000C00F002803D00220C04307B0F0BD0221C8
:10428000A0688843801CA0602661A761002020628E
:104290000698002818D10EE000BFE86820210840E9
:1042A0000028FAD0686902900298C1B2226A501CB4
:1042B000206220698154216AA0698842ECD80221D9
:1042C000A0688843A06011E02720005D002809D085
:1042D0002620005DA3692269294614310190FDF76B
:1042E000E4FA03E028680821084328600020C4E7B6
:1042F000F8B504460D46164628206043A0494718E5
:104300002520C6552420C555002E0ED00020009033
:1043100000BF6000801DC0B269460870FDF752FA08
:1043200069462846FDF797FA03E02421C85DFDF7AA
:10433000B7FA0020F8BDF8B504460D461646282009
:1043400060438F4947182720C6552620C555002EA3
:104350000FD08C480068009000BF6000401DC0B2C4
:1043600069460870FDF72EFA69462846FDF773FA8C
:1043700003E02621C85DFDF793FA0020F8BD70B573
:1043800005460C46284600F005FA0646F06840212E
:104390000840002802D00020207001E00120207099
:1043A000002070BD70B505460C46284600F0F2F9B5
:1043B0000646F0682070002070BDF7B50D46164621
:1043C0000027009800F0E6F90446022D06D0032DE0
:1043D00006D0042D06D0052D08D105E0042708E0FD
:1043E000082706E0102704E0202702E00520C0434C
:1043F000FEBD00BF002E03D020683843206002E0DD
:104400002068B84320600020F2E7F0B585B006468A
:10441000002002902820704359494418304600F08B
:10442000B9F90546E8680390286803218903084024
:1044300088427BD1686880210840002878D0616973
:10444000E069884226D28021284600F0B1F9002890
:104450000DD0216AE069884209D1E168481CE0601A
:104460000878019001986861E069401CE06100BF34
:104470004021284600F09CF90028F9D02021284648
:1044800000F096F9002804D068690190206A401C69
:10449000206232E1A169206A884229D2802128461F
:1044A00000F086F900280AD0216AE069884206D126
:1044B000FF20019001986861E069401CE06100BF45
:1044C0004021284600F074F90028F9D02021284620
:1044D00000F06EF90028DCD0686901900198C1B243
:1044E0002269501C20611170206A401C206204E186
:1044F0000221A0688843A060A06840084000A06036
:10450000286828218843286020680028C1D0042119
:10451000284600F04DF9002803D0402102980843B6
:1045200002900121029808430290E6E07AE0FFE75A
:104530002021284600F03CF90028AAD068690190A3
:10454000A169206A884237D20198C1B22269501C01
:1045500020611170206A401C20628021284600F0F2
:1045600027F9002801D000206861A169206A8842EB
:104570008FD30221A0688843A060A068400803E0B0
:1045800054050020186400004000A060286828211D
:104590008843286020680028A9D00421284600F01C
:1045A00007F9002803D04021029808430290012116
:1045B000029808430290A0E06169E069884296D2BF
:1045C0008021284600F0F4F8002809D0E168481C52
:1045D000E0600878019001986861E069401CE06142
:1045E0006169E0698842A0D30221A0688843A06085
:1045F000A06840084000A0602868282188432860FF
:104600002068002879D00421284600F0D1F800283D
:1046100003D04021029808430290012102980843E8
:1046200002906AE0042103980840002809D1022181
:1046300003980840002804D10398C007C00F002841
:1046400023D00421029808430290039808400028D0
:1046500003D04021029808430290022103980840A9
:10466000002803D010210298084302900398C00745
:10467000C00F002803D020210298084302906869E7
:10468000C1B200916846007837E0202103980840C5
:10469000002816D06F69226A21698F54206A401C55
:1046A0002062216AA06988420BD10221A068884358
:1046B000A0602868082188432860022102980843E6
:1046C0000290802103980840002816D0E1696069B3
:1046D000884206D0E169481CE061E068405C68619E
:1046E0000BE0A06840084000A060286820218843B3
:1046F000286001210298084302902068002806D013
:104700000298002803D0226861680298904705B09B
:10471000F0BD10B50020FFF778FE10BD10B50120E8
:10472000FFF773FE10BD10B5002819DB224A0323E2
:104730001B02D21883089B00D2588307DC0EFF238C
:10474000A3409A438B071B0E8407E40EA3401A4331
:10475000194B032424021B198408A4001A5118E0E1
:10476000164A03071B0F083B9B089B00D258830780
:10477000DC0EFF23A3409A438B071B0E8407E40E35
:10478000A3401A430D4B0407240F083CA408A400BF
:104790001A5110BD01460802094A801870470146A7
:1047A000002901D10B2070470846103040B2FAE7CB
:1047B0000246D0680840704700E100E01CED00E0D0
:1047C0000038004070B5044600252078012812D139
:1047D0008007806B0121084389078863C748806987
:1047E000C00AC002C54988610846806901210843A2
:1047F000C249886107E001208007806B40084000C3
:104800000121890788636078032802DD0520C04301
:1048100070BD60780543A07800280CD13F21890243
:104820002846884305460C212846884305463F20F4
:104830008002054311E0A07801280BD13F218902B5
:104840002846884305460C21284688430546AC483F
:10485000054302E00520C043DAE7AA482843AA49F5
:1048600008606068002803D0A8496068C86002E05A
:10487000A748A649C8600220002805DBC206D20E60
:1048800001219140A34A116000BF217A022000F06B
:10489000FEF80220002809DB00BF00BFC206D20ECE
:1048A000012191409C4A116000BF00BF00BF002061
:1048B000AEE770B506460C461546B078012800D123
:1048C00000BF9248046045603046FFF77BFF002040
:1048D00070BD8E480021016041608160C1608F48D9
:1048E000894908600220002816DBC206D20E012189
:1048F0009140894A8032116000BF00BF00BFBFF302
:104900004F8F00BF00BF00BF00BF00BF00BFBFF39D
:104910006F8F00BF00BF00BF00BF0020704702467E
:1049200000217A4882608068784BDB68984218D909
:10493000764880680002000A734B98607348C0682C
:104940000002000A1861184601683F231B0108464F
:1049500098430146082001436A4808436A4B18609F
:1049600007E06A4880680002000A674B9860684860
:104970001861654801683F231B01084698430146BA
:1049800067480843604B18600020704700215E486C
:1049900001683F22120108469043014659480843E6
:1049A000594A1060002070475748C1680269006882
:1049B000FF23A1331840002809D15A480078002865
:1049C00005D100BF9142FDD20120564B18706A20DC
:1049D0004D4B58610020704701464B48C068086045
:1049E00000207047014648484068C2B2D007C00F57
:1049F000002803D102201040002803D08020084363
:104A0000414B58600020704710B50346012B16D16A
:104A10008007806B012420439C07A063374880698E
:104A2000C00AC002354CA061204680690C022043B8
:104A3000324CA061204680691043A06107E001204C
:104A40008007806B400840000124A407A063002079
:104A500010BD10B504462C484068022108400028CB
:104A600002D00220FFF7BEFF27484068C007C00FF2
:104A7000002802D00120FFF7B5FF24480068002875
:104A800004D02248416802682046904710BD10B506
:104A9000002819DB204A03231B02D21883089B003D
:104AA000D2588307DC0EFF23A3409A438B071B0ECB
:104AB0008407E40EA3401A43174B032424021B1956
:104AC0008408A4001A5118E0174A03071B0F083B7B
:104AD0009B089B00D2588307DC0EFF23A3409A4318
:104AE0008B071B0E8407E40EA3401A430E4B0407EA
:104AF000240F083CA408A4001A5110BD80000040F7
:104B000004940000A001695A001A0040A405002086
:104B1000FFFFFF0080E200E000E100E0A095695A9D
:104B20000000695A5C0000201CED00E0002815DB45
:104B3000C206D20E01219140FE4A116000BF00BFA3
:104B400000BFBFF34F8F00BF00BF00BF00BF00BF5B
:104B500000BFBFF36F8F00BF00BF00BF704710B52D
:104B6000F54800780006C00F00281FD0F348006AFF
:104B700008210840002819D0F148007F0621884309
:104B8000801CEF4908771D20FFF7D0FFEB4820304D
:104B9000006C012109068843E84920310864E74890
:104BA000006A09218843E549086210BDE44860387D
:104BB000416A2030007D0C5CE000E2494018016849
:104BC000DF486038C2682030007DC00011506000AE
:104BD000401C8000DB4940180168D9486038C26831
:104BE0002030007DC000101841600020D3490862C9
:104BF000D3484038007D401CC1B2D14840380175CF
:104C0000017D407D81420ED1CD48007F0621884341
:104C1000001DCB4908770021C948403801751D2087
:104C2000FFF784FF15E00021C4482030C160C4486C
:104C30006038416A2030007D0C5CC0482030C0687C
:104C40000121A1400843BD492031C8601120BB4962
:104C5000086200BFA9E7BA4940390877704770B5C4
:104C600004460D46B648007F10218843B4490877B2
:104C70000846007F20218843B1490877012C01D0E4
:104C8000012D3FD1012C0DD1AD48007F202188435B
:104C90002030AB49087708466038816AA748203041
:104CA000016403E00021A54820300164012D1FD1DB
:104CB000052201210420FCF70DFF0222012104201E
:104CC000FCF7F3FE9D482030006CE90588439B49C2
:104CD000203108640846006C890608439749203152
:104CE00008649748007F1021884310309449087762
:104CF00092482030006C0121090608438F49203179
:104D0000086408E08D482030006C012109068843C2
:104D10008A492031086470BD884920318860704715
:104D20000146002006E0864A603A92688300D1502E
:104D3000421CD0B2824A403A527D8242F3DC704734
:104D40007F4A603A92688300D15070477C4908746A
:104D500070477B4948747047794B203B5877997767
:104D6000403B1A667047764920394872704774494B
:104D70002039087270477249603948647047704A38
:104D8000403A9077D17770476D4920390870704765
:104D90006B496039C8647047032802DA684988742F
:104DA00002E0012266498A74704710B50446052165
:104DB000204601F059F962496039486710BD70B565
:104DC00005460C460521284601F04EF95C4960393C
:104DD00088670521204601F047F95949603948673D
:104DE00070BD57486038C06A70470022544B603B22
:104DF0001A700023524A403A137500200AE000223C
:104E00004F4B603BDB691A544D4B603B1B6A1A5495
:104E1000421CD0B24A4A403A527D8242EFDC484AB4
:104E2000127F52085200464B1A770022603B1A63E9
:104E3000DA62FF23424A203A1374002006E000227F
:104E40003F4B603B5B6A1A54421CD0B23C4A403A2A
:104E5000527D8242F3DC0021002017E000BF10E009
:104E6000374A603A926B01238B401A40002A06D0E1
:104E7000334A603A526A11544A1CD1B203E04A1CC8
:104E8000D1B21829ECDB00BF421CD0B22C4A403A08
:104E9000527D8242E2DC704730B50023274C23620A
:104EA000FF24A134254B20335C605C68244B9B7C41
:104EB000E418224B20335C601F4B1B781B06DB0F72
:104EC000002B08D11D4B20335B68FF240134A34322
:104ED0001A4C203463601C4C184B2033DC62FF24D6
:104EE0001C6174245C61164B603B5C6F134B203378
:104EF0001C6308249C610224DC6120241C621F24A2
:104F00005C6200249C620021002030E0032801D074
:104F1000102821D1094B203384001A59130C0C4658
:104F20004D1CE9B2A500094C635195B20B464C1CCF
:104F3000E1B20DE080E100E0000000200037004019
:104F40001406002000360040FF03000094060020F5
:104F50009C00FE4B1D5108E0FD4B84001D590B4683
:104F60004C1CE1B29C00F94B1D51431CD8B21128D6
:104F7000CCDB30BD10B5F74A526A115CF44AD268F6
:104F800001238B401A43F24BDA601122F04B203B95
:104F90001A6200BFEE4A203A126A04231A40002A1D
:104FA000F8D0EC4A526A125CD200EB4BD21812686D
:104FB000E84BDB68C4001A51E64A526A125C5200A0
:104FC000521C9200E44BD2181268E24BDB68C4001A
:104FD0001B195A600022DE4B203B1A62DC4AD26861
:104FE00001238B409A43DA4BDA6010BD10B50146BD
:104FF000D848406A425C0023D548C360C06801239A
:1050000093401843D24BD860D44800680823984393
:10501000D24B18601D20002805DBC406E40E0123D6
:10502000A340CF4C236000BF1D20002809DB00BF38
:1050300000BFC406E40E0123A340CA4C236000BF96
:1050400000BF00BF1120C24B203B186210BD30B51D
:10505000002406E00021BE486038A2008150601C98
:10506000C4B2182CF6DBBA4840681C218843B84902
:105070004860B8482030007F01287CD100240CE033
:105080002046FFF777FFB348C068E1004058B149B8
:105090008969A2008850601CC4B2AE482030407DAF
:1050A000A042EDDC00240AE00121C902A8486038D2
:1050B000A84A526A125D92008150601CC4B2A54891
:1050C0002030407DA042EFDCA14840680C2108431D
:1050D0009F4948600D1500BF00242DE02046FFF7D2
:1050E00049FF9C48C068E10040589A498969A2007C
:1050F000895888420FD9964860389649496A095DAF
:1051000089004058411992486038924A526A125DAB
:10511000920081500EE08E4860388E49496A095DE0
:1051200089004058411B8A4860388A4A526A125D99
:1051300092008150601CC4B286482030407DA0425D
:10514000CCDC6D08002DC7D100BF00BF8148816F46
:105150007F48C1627F48416F7D48016340681821E4
:1051600088437B49486008464068042108437849E1
:105170004860A5E0FFE777482030007F0228F8D19B
:1051800000217448203041770020FFF7F3FE71487A
:10519000C06800686F4989690860012417E02046EB
:1051A000FFF7E8FE6B48C068E1004058694989692B
:1051B0000968884209D26748C068E10040586549DB
:1051C00089690860634820304477601CC4B2614834
:1051D0002030407DA042E2DC5D48406814218843D5
:1051E0005B494860084640680821084358494860C0
:1051F00058492031487FFFF7BDFE5648C16820302E
:10520000407FC000085853498969086000240FE0B6
:1052100050482030407FA04208D00121C9024C48AC
:1052200060384C4A526A125D92008150601CC4B2D0
:1052300048482030407DA042EADC0125AD0200BF95
:10524000002433E043482030407FA04200D12BE0CF
:105250002046FFF78FFE3F48C068E10040583D49B7
:105260008969096888420FD9394860383949496ADB
:10527000095D89004058411935486038354A526AFD
:10528000125D920081500EE0314860383149496A20
:10529000095D89004058411B2D4860382D4A526AEB
:1052A000125D9200815000BF601CC4B229482030BA
:1052B000407DA042C6DC6D08002DC1D100BF00BFFB
:1052C000002409E022486038A1004058A1001F4A8C
:1052D000603A5050601CC4B2182CF3DB30BD10B5DE
:1052E00000F062FDC007C00F002848D0012000F088
:1052F0005AFE012849D1002425E01648C068E10083
:10530000405814490969E20088501248C068E10019
:10531000401840680F490969E200891848600D4843
:10532000C068E10041580B484069E20081500948DB
:10533000C068E1004018406806494969E2008918E0
:105340004860601CC4B2034820300DE09406002081
:1053500020370040B4050020003600400000002047
:1053600080E200E000E100E0407DA042C5DCFE48B4
:10537000007F40084000401CFB49087705E0FA48E0
:105380006038C16C012000F0C9FC10BDF8B500F018
:105390000BFD0421084000287ED0042000F003FE0D
:1053A00001287AD10024AEE00025A7E0EE4A603A59
:1053B000526EE300D218AB00D058EB4A603AD16E7F
:1053C00000F048FEE8496039896EE2008918AA00B9
:1053D00088500120A040E4496039096B084000284A
:1053E00077D1E1486038C069005D002873D1DE499B
:1053F00060398968A2008958DB4A527C51430846CB
:10540000642100F031FED84960394968A20089580A
:10541000884269DDD44960398968A2008958D24A36
:10542000127C51430846642100F01EFECE496039CB
:105430004968A2008958884204DDCB482038407F63
:10544000009003E0C8482038807F0090C64960394A
:105450000969E2008918AA008958009A5143C24A92
:10546000603A926EE300D218AB00D25888180099C7
:10547000491C00F0EFFD0646BB4A603AD268E300E3
:10548000D218AB00D258B01AB74A603A1269E3009A
:10549000D218AB00D25801E072E044E0B24B603B5E
:1054A000DB68E700DB19AF00DB59D11A002901DB0B
:1054B0000A4600E04A42002801DB034600E043427E
:1054C0009A4211DDA84860380069E1004018A9003F
:1054D000465009E0FFE7A4486038C069005D401EFF
:1054E000A1496039C969085500209F496039496E52
:1054F000E2008918AA008850681CC5B2022D00DAA3
:1055000054E7601CC4B298484038407DA04200DD9A
:105510004AE7002094496039C8660846016E0420B5
:1055200000F0FCFB4CE000241DE0002517E08E4855
:105530006038406EE1004018A90040588A4960393F
:10554000C968E2008918AA0089584018864960395C
:10555000496EE2008918AA008850681CC5B2022D65
:10556000E5DB601CC4B280484038407DA042DCDCF2
:105570007D486038C06E401C7B496039C8661FE0BA
:1055800000240FE0002509E0002077496039496ECA
:10559000E2008918AA008850681CC5B2022DF3DB0E
:1055A000601CC4B270484038407DA042EADC002054
:1055B0006D496039C8660846016E042000F0AEFBF4
:1055C000F8BD7CB500249EE067486038C068E10003
:1055D0004158654860384069E2008058081A0090D8
:1055E00061486038C068E100401840685E49603931
:1055F0004969E20089184968401A01905A482038E0
:105600000078002836D0584A603A5269E300D258F0
:10561000554B203B1B785A43534B603BDB68E500FE
:105620005B59D018504A203A1278511C00F012FDF4
:105630004D496039C968E20088504B4A603A526966
:10564000E300D2185268484B203B1B785A43464B24
:10565000603BDB68E5005B195B68D018424A203A82
:105660001278511C00F0F6FC3F496039C968E2002D
:105670008918486000990198002901DB0A4600E07A
:105680004A42002801DB034600E043429A4210DA16
:10569000354860380069E100405833496039C968CD
:1056A000E2008958411A304860384068A2008150B1
:1056B00011E02D4860380069E100401840682A492F
:1056C0006039C968E20089184968401A264960397A
:1056D0004968A200885024486038C068E1004158F9
:1056E000214860384069E20081501F486038C06836
:1056F000E100401840681C4960394969E200891896
:105700004860601CC4B218484038407DA04200DDAB
:105710005AE77CBD70B500241BE113486038006B6C
:105720000121A140084000283FD00F496039896815
:10573000A20089580C4A203A527A51430846642103
:1057400000F092FC084960394968A20089588842F3
:1057500023DD05486038006A005D401E024960395B
:10576000096A0855004801E0140600206038006A04
:10577000005D002850D1F848006B0121A14088430A
:10578000F54908630846C06A0121A1408843F249EF
:10579000C8620320C96908553EE0EF482030C07F49
:1057A000401CED49096A085536E0EB484068A10005
:1057B0004058E9498968A2008958884228DDE648AE
:1057C000006A005D401CE449096A08550320E2496B
:1057D000C9690855E048006A015DDF482030807FD4
:1057E000814219DDDC482030C07F401CDA49096A5B
:1057F0000855D948006B0121A1400843D6490863E8
:105800000846C06A0121A1400843D349C86203E0A9
:105810000020D149096A08550026CF498968A200AD
:105820008958CD4A4032127A51430846642100F02B
:105830001BFCC9490969E20089584118C648C0687B
:10584000E2008058814218D3C3498968A200895870
:10585000C14A4032127A51430846642100F004FCE8
:10586000BD490969E200891849684118BA48C06809
:10587000E20080184068814200D20126B648006BE1
:10588000002804D1B448006A005D002804D0FF213C
:10589000B148403001745AE0AF484030007CFF28E6
:1058A00019D1012E53D1AC48403004744038C0683F
:1058B000E1004158A8480069E2008058814204D9BB
:1058C0006421022000F02AFA41E0A348416C022042
:1058D00000F024FA3BE0A0484030007CA04236D1E2
:1058E000012E2DD1022000F05EFB01282FD10025D2
:1058F00020E09948C068E900405897490969EA00E2
:1059000088509548C068E90040184168924800698D
:10591000EA008018416000218F48406EEA00815003
:1059200000208D49496EEA00891848608A49C86696
:10593000681CC5B288482030407DA842D9DC06E00A
:10594000FF21854840300174022000F030FA601CCD
:10595000C4B281482030407DA04200DDDDE6002158
:105960007D484030017700240EE07B48006B012128
:10597000A1400840002805D0601CC1B276484030E4
:10598000017706E0601CC4B273482030407DA0421D
:10599000EBDC00BF70BD10B570480088C005C00FBB
:1059A00000287DD06D4800888005C00F002829D0D0
:1059B00011206B49086200BF6948006A0421084051
:1059C0000028F9D06448406A0078C0006549401852
:1059D0000068614948650020614908625E48406D81
:1059E0005D49896D604A891888420CD900205F4959
:1059F000087059486030007F0821884308305649B4
:105A00006031087768E05448406D534988655748CD
:105A10000078401C554908700846007805285BDB73
:105A2000002008704E48203040681C2188434C49B3
:105A30002031486011204A49086200BF4848006A86
:105A4000042108400028F9D000242EE04248406A92
:105A5000005DC0004349401800683F49C968E20042
:105A600088503D48406A005D4000401C80003D4930
:105A7000401800683849C968E2008918486036480B
:105A8000C068E100405834490969E2008850324852
:105A9000C068E100401840682F490969E20000E051
:105AA00022E089184860601CC4B22B482030407D39
:105AB000A042CBDC00202A490862294820304068F7
:105AC0001C2188432649203148600846406810213F
:105AD0000843234920314860204800680821884352
